{
    "_format": "hh-sol-artifact-1",
    "contractName": "ArrowOptionChainProxy",
    "sourceName": "contracts/ArrowOptionChainProxy.sol",
    "abi": [
        {
            "inputs": [],
            "stateMutability": "nonpayable",
            "type": "constructor"
        },
        {
            "inputs": [],
            "name": "WAVAXAddress",
            "outputs": [
                {
                    "internalType": "address",
                    "name": "",
                    "type": "address"
                }
            ],
            "stateMutability": "view",
            "type": "function"
        },
        {
            "inputs": [],
            "name": "comptrollerAddress",
            "outputs": [
                {
                    "internalType": "address",
                    "name": "",
                    "type": "address"
                }
            ],
            "stateMutability": "view",
            "type": "function"
        },
        {
            "inputs": [
                {
                    "components": [
                        {
                            "internalType": "bool",
                            "name": "buyFlag",
                            "type": "bool"
                        },
                        {
                            "internalType": "string",
                            "name": "ticker",
                            "type": "string"
                        },
                        {
                            "internalType": "uint256",
                            "name": "expiration",
                            "type": "uint256"
                        },
                        {
                            "internalType": "uint256",
                            "name": "readableExpiration",
                            "type": "uint256"
                        },
                        {
                            "internalType": "uint256[2]",
                            "name": "strike",
                            "type": "uint256[2]"
                        },
                        {
                            "internalType": "string",
                            "name": "decimalStrike",
                            "type": "string"
                        },
                        {
                            "internalType": "uint256",
                            "name": "contractType",
                            "type": "uint256"
                        },
                        {
                            "internalType": "uint256",
                            "name": "quantity",
                            "type": "uint256"
                        },
                        {
                            "internalType": "uint256",
                            "name": "thresholdPrice",
                            "type": "uint256"
                        },
                        {
                            "internalType": "uint256",
                            "name": "optionPrice",
                            "type": "uint256"
                        },
                        {
                            "internalType": "address",
                            "name": "senderAddress",
                            "type": "address"
                        },
                        {
                            "internalType": "bytes32",
                            "name": "message",
                            "type": "bytes32"
                        },
                        {
                            "internalType": "bytes",
                            "name": "signature",
                            "type": "bytes"
                        }
                    ],
                    "internalType": "struct DeliverOptionParams",
                    "name": "params",
                    "type": "tuple"
                }
            ],
            "name": "deliverOption",
            "outputs": [],
            "stateMutability": "nonpayable",
            "type": "function"
        },
        {
            "inputs": [
                {
                    "internalType": "int256",
                    "name": "_delta",
                    "type": "int256"
                }
            ],
            "name": "deltaHedge",
            "outputs": [],
            "stateMutability": "nonpayable",
            "type": "function"
        },
        {
            "inputs": [],
            "name": "events",
            "outputs": [
                {
                    "internalType": "contract IArrowEvents",
                    "name": "",
                    "type": "address"
                }
            ],
            "stateMutability": "view",
            "type": "function"
        },
        {
            "inputs": [],
            "name": "expiration",
            "outputs": [
                {
                    "internalType": "uint256",
                    "name": "",
                    "type": "uint256"
                }
            ],
            "stateMutability": "view",
            "type": "function"
        },
        {
            "inputs": [],
            "name": "feeRate",
            "outputs": [
                {
                    "internalType": "uint256",
                    "name": "",
                    "type": "uint256"
                }
            ],
            "stateMutability": "view",
            "type": "function"
        },
        {
            "inputs": [],
            "name": "feeRateScaleFactor",
            "outputs": [
                {
                    "internalType": "uint256",
                    "name": "",
                    "type": "uint256"
                }
            ],
            "stateMutability": "view",
            "type": "function"
        },
        {
            "inputs": [],
            "name": "getOptionAddresses",
            "outputs": [
                {
                    "internalType": "address[]",
                    "name": "",
                    "type": "address[]"
                }
            ],
            "stateMutability": "view",
            "type": "function"
        },
        {
            "inputs": [],
            "name": "hedgingDelegateAddress",
            "outputs": [
                {
                    "internalType": "address",
                    "name": "",
                    "type": "address"
                }
            ],
            "stateMutability": "view",
            "type": "function"
        },
        {
            "inputs": [
                {
                    "internalType": "uint256",
                    "name": "_settlementPrice",
                    "type": "uint256"
                }
            ],
            "name": "initSettlement",
            "outputs": [],
            "stateMutability": "nonpayable",
            "type": "function"
        },
        {
            "inputs": [],
            "name": "insurancePool",
            "outputs": [
                {
                    "internalType": "contract IArrowInsurancePool",
                    "name": "",
                    "type": "address"
                }
            ],
            "stateMutability": "view",
            "type": "function"
        },
        {
            "inputs": [],
            "name": "optionChainDelegateAddress",
            "outputs": [
                {
                    "internalType": "address",
                    "name": "",
                    "type": "address"
                }
            ],
            "stateMutability": "view",
            "type": "function"
        },
        {
            "inputs": [],
            "name": "priceFeedAddress",
            "outputs": [
                {
                    "internalType": "address",
                    "name": "",
                    "type": "address"
                }
            ],
            "stateMutability": "view",
            "type": "function"
        },
        {
            "inputs": [],
            "name": "qiBorrowTokenAddress",
            "outputs": [
                {
                    "internalType": "address",
                    "name": "",
                    "type": "address"
                }
            ],
            "stateMutability": "view",
            "type": "function"
        },
        {
            "inputs": [],
            "name": "qiCollateralTokenAddress",
            "outputs": [
                {
                    "internalType": "address",
                    "name": "",
                    "type": "address"
                }
            ],
            "stateMutability": "view",
            "type": "function"
        },
        {
            "inputs": [],
            "name": "readableExpiration",
            "outputs": [
                {
                    "internalType": "uint256",
                    "name": "",
                    "type": "uint256"
                }
            ],
            "stateMutability": "view",
            "type": "function"
        },
        {
            "inputs": [],
            "name": "registry",
            "outputs": [
                {
                    "internalType": "contract IArrowRegistry",
                    "name": "",
                    "type": "address"
                }
            ],
            "stateMutability": "view",
            "type": "function"
        },
        {
            "inputs": [],
            "name": "router",
            "outputs": [
                {
                    "internalType": "contract IArrowRouter",
                    "name": "",
                    "type": "address"
                }
            ],
            "stateMutability": "view",
            "type": "function"
        },
        {
            "inputs": [
                {
                    "internalType": "address",
                    "name": "_owner",
                    "type": "address"
                }
            ],
            "name": "settle",
            "outputs": [],
            "stateMutability": "nonpayable",
            "type": "function"
        },
        {
            "inputs": [],
            "name": "settleInitialized",
            "outputs": [
                {
                    "internalType": "bool",
                    "name": "",
                    "type": "bool"
                }
            ],
            "stateMutability": "view",
            "type": "function"
        },
        {
            "inputs": [
                {
                    "internalType": "address",
                    "name": "",
                    "type": "address"
                }
            ],
            "name": "settled",
            "outputs": [
                {
                    "internalType": "bool",
                    "name": "",
                    "type": "bool"
                }
            ],
            "stateMutability": "view",
            "type": "function"
        },
        {
            "inputs": [],
            "name": "stablecoin",
            "outputs": [
                {
                    "internalType": "contract IERC20Metadata",
                    "name": "",
                    "type": "address"
                }
            ],
            "stateMutability": "view",
            "type": "function"
        },
        {
            "inputs": [],
            "name": "stablecoinAddress",
            "outputs": [
                {
                    "internalType": "address",
                    "name": "",
                    "type": "address"
                }
            ],
            "stateMutability": "view",
            "type": "function"
        },
        {
            "inputs": [],
            "name": "swapRouterAddress",
            "outputs": [
                {
                    "internalType": "address",
                    "name": "",
                    "type": "address"
                }
            ],
            "stateMutability": "view",
            "type": "function"
        },
        {
            "inputs": [],
            "name": "ticker",
            "outputs": [
                {
                    "internalType": "string",
                    "name": "",
                    "type": "string"
                }
            ],
            "stateMutability": "view",
            "type": "function"
        },
        {
            "inputs": [],
            "name": "totalFeesEarned",
            "outputs": [
                {
                    "internalType": "uint256",
                    "name": "",
                    "type": "uint256"
                }
            ],
            "stateMutability": "view",
            "type": "function"
        },
        {
            "inputs": [],
            "name": "underlyingAssetAddress",
            "outputs": [
                {
                    "internalType": "address",
                    "name": "",
                    "type": "address"
                }
            ],
            "stateMutability": "view",
            "type": "function"
        }
    ],
    "bytecode": "0x60806040526000601060006101000a81548160ff0219169083151502179055503480156200002c57600080fd5b5060003373ffffffffffffffffffffffffffffffffffffffff1663890357306040518163ffffffff1660e01b815260040160006040518083038186803b1580156200007657600080fd5b505afa1580156200008b573d6000803e3d6000fd5b505050506040513d6000823e3d601f19601f82011682018060405250810190620000b691906200112d565b600560008060006001600060026000889d5089919050558891905055879190509080519060200190620000eb92919062000e40565b508691906101000a81548173ffffffffffffffffffffffffffffffffffffffff021916908373ffffffffffffffffffffffffffffffffffffffff160217905550505050505080601260006101000a81548173ffffffffffffffffffffffffffffffffffffffff021916908373ffffffffffffffffffffffffffffffffffffffff160217905550601260009054906101000a900473ffffffffffffffffffffffffffffffffffffffff1673ffffffffffffffffffffffffffffffffffffffff16637bef4f546040518163ffffffff1660e01b815260040160206040518083038186803b158015620001da57600080fd5b505afa158015620001ef573d6000803e3d6000fd5b505050506040513d601f19601f82011682018060405250810190620002159190620011d4565b600460006101000a81548173ffffffffffffffffffffffffffffffffffffffff021916908373ffffffffffffffffffffffffffffffffffffffff160217905550600460009054906101000a900473ffffffffffffffffffffffffffffffffffffffff16601360006101000a81548173ffffffffffffffffffffffffffffffffffffffff021916908373ffffffffffffffffffffffffffffffffffffffff160217905550601260009054906101000a900473ffffffffffffffffffffffffffffffffffffffff1673ffffffffffffffffffffffffffffffffffffffff16633f471f526040518163ffffffff1660e01b815260040160206040518083038186803b1580156200032157600080fd5b505afa15801562000336573d6000803e3d6000fd5b505050506040513d601f19601f820116820180604052508101906200035c9190620011d4565b601460006101000a81548173ffffffffffffffffffffffffffffffffffffffff021916908373ffffffffffffffffffffffffffffffffffffffff160217905550601260009054906101000a900473ffffffffffffffffffffffffffffffffffffffff1673ffffffffffffffffffffffffffffffffffffffff1663f21de1e86040518163ffffffff1660e01b815260040160206040518083038186803b1580156200040557600080fd5b505afa1580156200041a573d6000803e3d6000fd5b505050506040513d601f19601f82011682018060405250810190620004409190620011d4565b601560006101000a81548173ffffffffffffffffffffffffffffffffffffffff021916908373ffffffffffffffffffffffffffffffffffffffff160217905550601260009054906101000a900473ffffffffffffffffffffffffffffffffffffffff1673ffffffffffffffffffffffffffffffffffffffff166399992f646040518163ffffffff1660e01b815260040160206040518083038186803b158015620004e957600080fd5b505afa158015620004fe573d6000803e3d6000fd5b505050506040513d601f19601f82011682018060405250810190620005249190620011d4565b601660006101000a81548173ffffffffffffffffffffffffffffffffffffffff021916908373ffffffffffffffffffffffffffffffffffffffff160217905550601260009054906101000a900473ffffffffffffffffffffffffffffffffffffffff1673ffffffffffffffffffffffffffffffffffffffff16638345a5c96040518163ffffffff1660e01b815260040160206040518083038186803b158015620005cd57600080fd5b505afa158015620005e2573d6000803e3d6000fd5b505050506040513d601f19601f82011682018060405250810190620006089190620011d4565b600c60006101000a81548173ffffffffffffffffffffffffffffffffffffffff021916908373ffffffffffffffffffffffffffffffffffffffff160217905550601260009054906101000a900473ffffffffffffffffffffffffffffffffffffffff1673ffffffffffffffffffffffffffffffffffffffff1663b84405bf6040518163ffffffff1660e01b815260040160206040518083038186803b158015620006b157600080fd5b505afa158015620006c6573d6000803e3d6000fd5b505050506040513d601f19601f82011682018060405250810190620006ec9190620011d4565b601760006101000a81548173ffffffffffffffffffffffffffffffffffffffff021916908373ffffffffffffffffffffffffffffffffffffffff160217905550601260009054906101000a900473ffffffffffffffffffffffffffffffffffffffff1673ffffffffffffffffffffffffffffffffffffffff16634cc9d1596040518163ffffffff1660e01b815260040160206040518083038186803b1580156200079557600080fd5b505afa158015620007aa573d6000803e3d6000fd5b505050506040513d601f19601f82011682018060405250810190620007d09190620011d4565b600d60006101000a81548173ffffffffffffffffffffffffffffffffffffffff021916908373ffffffffffffffffffffffffffffffffffffffff160217905550601260009054906101000a900473ffffffffffffffffffffffffffffffffffffffff1673ffffffffffffffffffffffffffffffffffffffff1663f5c8ba936040518163ffffffff1660e01b815260040160206040518083038186803b1580156200087957600080fd5b505afa1580156200088e573d6000803e3d6000fd5b505050506040513d601f19601f82011682018060405250810190620008b49190620011d4565b600660006101000a81548173ffffffffffffffffffffffffffffffffffffffff021916908373ffffffffffffffffffffffffffffffffffffffff160217905550601260009054906101000a900473ffffffffffffffffffffffffffffffffffffffff1673ffffffffffffffffffffffffffffffffffffffff16634ee9159a6040518163ffffffff1660e01b815260040160206040518083038186803b1580156200095d57600080fd5b505afa15801562000972573d6000803e3d6000fd5b505050506040513d601f19601f82011682018060405250810190620009989190620011d4565b600760006101000a81548173ffffffffffffffffffffffffffffffffffffffff021916908373ffffffffffffffffffffffffffffffffffffffff160217905550601560009054906101000a900473ffffffffffffffffffffffffffffffffffffffff1673ffffffffffffffffffffffffffffffffffffffff1663ee2b1d4b60006040518263ffffffff1660e01b815260040162000a3691906200131d565b60206040518083038186803b15801562000a4f57600080fd5b505afa15801562000a64573d6000803e3d6000fd5b505050506040513d601f19601f8201168201806040525081019062000a8a9190620011d4565b600960006101000a81548173ffffffffffffffffffffffffffffffffffffffff021916908373ffffffffffffffffffffffffffffffffffffffff160217905550601560009054906101000a900473ffffffffffffffffffffffffffffffffffffffff1673ffffffffffffffffffffffffffffffffffffffff1663ee2b1d4b6040518163ffffffff1660e01b815260040162000b259062001391565b60206040518083038186803b15801562000b3e57600080fd5b505afa15801562000b53573d6000803e3d6000fd5b505050506040513d601f19601f8201168201806040525081019062000b799190620011d4565b600860006101000a81548173ffffffffffffffffffffffffffffffffffffffff021916908373ffffffffffffffffffffffffffffffffffffffff160217905550601560009054906101000a900473ffffffffffffffffffffffffffffffffffffffff1673ffffffffffffffffffffffffffffffffffffffff1663f6ccbadd60006040518263ffffffff1660e01b815260040162000c1791906200131d565b60206040518083038186803b15801562000c3057600080fd5b505afa15801562000c45573d6000803e3d6000fd5b505050506040513d601f19601f8201168201806040525081019062000c6b9190620011d4565b600a60006101000a81548173ffffffffffffffffffffffffffffffffffffffff021916908373ffffffffffffffffffffffffffffffffffffffff160217905550601260009054906101000a900473ffffffffffffffffffffffffffffffffffffffff1673ffffffffffffffffffffffffffffffffffffffff1663316c95d86040518163ffffffff1660e01b815260040160206040518083038186803b15801562000d1457600080fd5b505afa15801562000d29573d6000803e3d6000fd5b505050506040513d601f19601f8201168201806040525081019062000d4f9190620011d4565b600b60006101000a81548173ffffffffffffffffffffffffffffffffffffffff021916908373ffffffffffffffffffffffffffffffffffffffff160217905550601560009054906101000a900473ffffffffffffffffffffffffffffffffffffffff1673ffffffffffffffffffffffffffffffffffffffff166384e5eed06040518163ffffffff1660e01b815260040160206040518083038186803b15801562000df857600080fd5b505afa15801562000e0d573d6000803e3d6000fd5b505050506040513d601f19601f8201168201806040525081019062000e339190620013b3565b600f8190555050620013e5565b82805462000e4e9062001235565b90600052602060002090601f01602090048101928262000e72576000855562000ebe565b82601f1062000e8d57805160ff191683800117855562000ebe565b8280016001018555821562000ebe579182015b8281111562000ebd57825182559160200191906001019062000ea0565b5b50905062000ecd919062000ed1565b5090565b5b8082111562000eec57600081600090555060010162000ed2565b5090565b6000604051905090565b600080fd5b600080fd5b600073ffffffffffffffffffffffffffffffffffffffff82169050919050565b600062000f318262000f04565b9050919050565b62000f438162000f24565b811462000f4f57600080fd5b50565b60008151905062000f638162000f38565b92915050565b600080fd5b600080fd5b6000601f19601f8301169050919050565b7f4e487b7100000000000000000000000000000000000000000000000000000000600052604160045260246000fd5b62000fbe8262000f73565b810181811067ffffffffffffffff8211171562000fe05762000fdf62000f84565b5b80604052505050565b600062000ff562000ef0565b905062001003828262000fb3565b919050565b600067ffffffffffffffff82111562001026576200102562000f84565b5b620010318262000f73565b9050602081019050919050565b60005b838110156200105e57808201518184015260208101905062001041565b838111156200106e576000848401525b50505050565b60006200108b620010858462001008565b62000fe9565b905082815260208101848484011115620010aa57620010a962000f6e565b5b620010b78482856200103e565b509392505050565b600082601f830112620010d757620010d662000f69565b5b8151620010e984826020860162001074565b91505092915050565b6000819050919050565b6200110781620010f2565b81146200111357600080fd5b50565b6000815190506200112781620010fc565b92915050565b600080600080600060a086880312156200114c576200114b62000efa565b5b60006200115c8882890162000f52565b955050602086015167ffffffffffffffff81111562001180576200117f62000eff565b5b6200118e88828901620010bf565b9450506040620011a18882890162001116565b9350506060620011b48882890162001116565b9250506080620011c78882890162000f52565b9150509295509295909350565b600060208284031215620011ed57620011ec62000efa565b5b6000620011fd8482850162000f52565b91505092915050565b7f4e487b7100000000000000000000000000000000000000000000000000000000600052602260045260246000fd5b600060028204905060018216806200124e57607f821691505b6020821081141562001265576200126462001206565b5b50919050565b600082825260208201905092915050565b60008190508160005260206000209050919050565b60008154620012a08162001235565b620012ac81866200126b565b94506001821660008114620012ca5760018114620012dd5762001314565b60ff198316865260208601935062001314565b620012e8856200127c565b60005b838110156200130c57815481890152600182019150602081019050620012eb565b808801955050505b50505092915050565b6000602082019050818103600083015262001339818462001291565b905092915050565b7f5553444300000000000000000000000000000000000000000000000000000000600082015250565b6000620013796004836200126b565b9150620013868262001341565b602082019050919050565b60006020820190508181036000830152620013ac816200136a565b9050919050565b600060208284031215620013cc57620013cb62000efa565b5b6000620013dc8482850162001116565b91505092915050565b61181880620013f56000396000f3fe608060405234801561001057600080fd5b50600436106101c45760003560e01c806388cbf7be116100f9578063ab2adc0011610097578063e0abca0b11610071578063e0abca0b14610491578063e660b066146104af578063e9cbd822146104df578063f887ea40146104fd576101c4565b8063ab2adc0014610437578063b5f8558c14610455578063c331cac414610473576101c4565b806390fcdb36116100d357806390fcdb36146103bf578063978bbdb9146103dd5780639a89df46146103fb5780639b76eba214610419576101c4565b806388cbf7be1461036757806389d1a0fc146103835780638ba47bdd146103a1576101c4565b80635d679f6811610166578063670798fc11610140578063670798fc146102f157806368bde41f1461030f5780636a256b291461032d5780637b10399914610349576101c4565b80635d679f6814610299578063615737ef146102b75780636192f20d146102d5576101c4565b80633943a1b3116101a25780633943a1b3146102215780634665096d1461023f57806354ea51c81461025d57806355aab09c1461027b576101c4565b80631ab9550a146101c95780631cb13dc7146101e75780632ac53c7714610205575b600080fd5b6101d161051b565b6040516101de9190610d9b565b60405180910390f35b6101ef610521565b6040516101fc9190610dd1565b60405180910390f35b61021f600480360381019061021a9190610e22565b610534565b005b610229610664565b6040516102369190610d9b565b60405180910390f35b61024761066a565b6040516102549190610d9b565b60405180910390f35b610265610670565b6040516102729190610d9b565b60405180910390f35b610283610676565b6040516102909190610e90565b60405180910390f35b6102a161069c565b6040516102ae9190610f69565b60405180910390f35b6102bf61072a565b6040516102cc9190610e90565b60405180910390f35b6102ef60048036038101906102ea9190610fc1565b610750565b005b6102f9610880565b6040516103069190610e90565b60405180910390f35b6103176108a6565b6040516103249190610e90565b60405180910390f35b6103476004803603810190610342919061101a565b6108cc565b005b6103516109fc565b60405161035e91906110a6565b60405180910390f35b610381600480360381019061037c91906110e6565b610a22565b005b61038b610b52565b6040516103989190610e90565b60405180910390f35b6103a9610b78565b6040516103b691906111c8565b60405180910390f35b6103c7610c06565b6040516103d49190610e90565b60405180910390f35b6103e5610c2c565b6040516103f29190610d9b565b60405180910390f35b610403610c32565b6040516104109190610e90565b60405180910390f35b610421610c58565b60405161042e9190610e90565b60405180910390f35b61043f610c7e565b60405161044c919061120b565b60405180910390f35b61045d610ca4565b60405161046a9190611247565b60405180910390f35b61047b610cca565b6040516104889190610e90565b60405180910390f35b610499610cf0565b6040516104a69190610e90565b60405180910390f35b6104c960048036038101906104c4919061101a565b610d16565b6040516104d69190610dd1565b60405180910390f35b6104e7610d36565b6040516104f49190611283565b60405180910390f35b610505610d5c565b60405161051291906112bf565b60405180910390f35b600e5481565b601060009054906101000a900460ff1681565b6000600c60009054906101000a900473ffffffffffffffffffffffffffffffffffffffff1673ffffffffffffffffffffffffffffffffffffffff16826040516024016105809190610d9b565b6040516020818303038152906040527f2ac53c77000000000000000000000000000000000000000000000000000000007bffffffffffffffffffffffffffffffffffffffffffffffffffffffff19166020820180517bffffffffffffffffffffffffffffffffffffffffffffffffffffffff838183161783525050505060405161060a9190611321565b600060405180830381855af49150503d8060008114610645576040519150601f19603f3d011682016040523d82523d6000602084013e61064a565b606091505b5050905080610660576040513d806000833e8082fd5b5050565b61271081565b60015481565b60025481565b600d60009054906101000a900473ffffffffffffffffffffffffffffffffffffffff1681565b6060600380548060200260200160405190810160405280929190818152602001828054801561072057602002820191906000526020600020905b8160009054906101000a900473ffffffffffffffffffffffffffffffffffffffff1673ffffffffffffffffffffffffffffffffffffffff16815260200190600101908083116106d6575b5050505050905090565b600460009054906101000a900473ffffffffffffffffffffffffffffffffffffffff1681565b6000600c60009054906101000a900473ffffffffffffffffffffffffffffffffffffffff1673ffffffffffffffffffffffffffffffffffffffff168260405160240161079c9190611347565b6040516020818303038152906040527f6192f20d000000000000000000000000000000000000000000000000000000007bffffffffffffffffffffffffffffffffffffffffffffffffffffffff19166020820180517bffffffffffffffffffffffffffffffffffffffffffffffffffffffff83818316178352505050506040516108269190611321565b600060405180830381855af49150503d8060008114610861576040519150601f19603f3d011682016040523d82523d6000602084013e610866565b606091505b505090508061087c576040513d806000833e8082fd5b5050565b600860009054906101000a900473ffffffffffffffffffffffffffffffffffffffff1681565b600760009054906101000a900473ffffffffffffffffffffffffffffffffffffffff1681565b6000600c60009054906101000a900473ffffffffffffffffffffffffffffffffffffffff1673ffffffffffffffffffffffffffffffffffffffff16826040516024016109189190610e90565b6040516020818303038152906040527f6a256b29000000000000000000000000000000000000000000000000000000007bffffffffffffffffffffffffffffffffffffffffffffffffffffffff19166020820180517bffffffffffffffffffffffffffffffffffffffffffffffffffffffff83818316178352505050506040516109a29190611321565b600060405180830381855af49150503d80600081146109dd576040519150601f19603f3d011682016040523d82523d6000602084013e6109e2565b606091505b50509050806109f8576040513d806000833e8082fd5b5050565b601560009054906101000a900473ffffffffffffffffffffffffffffffffffffffff1681565b6000600c60009054906101000a900473ffffffffffffffffffffffffffffffffffffffff1673ffffffffffffffffffffffffffffffffffffffff1682604051602401610a6e919061175f565b6040516020818303038152906040527f88cbf7be000000000000000000000000000000000000000000000000000000007bffffffffffffffffffffffffffffffffffffffffffffffffffffffff19166020820180517bffffffffffffffffffffffffffffffffffffffffffffffffffffffff8381831617835250505050604051610af89190611321565b600060405180830381855af49150503d8060008114610b33576040519150601f19603f3d011682016040523d82523d6000602084013e610b38565b606091505b5050905080610b4e576040513d806000833e8082fd5b5050565b600560009054906101000a900473ffffffffffffffffffffffffffffffffffffffff1681565b60008054610b85906117b0565b80601f0160208091040260200160405190810160405280929190818152602001828054610bb1906117b0565b8015610bfe5780601f10610bd357610100808354040283529160200191610bfe565b820191906000526020600020905b815481529060010190602001808311610be157829003601f168201915b505050505081565b600660009054906101000a900473ffffffffffffffffffffffffffffffffffffffff1681565b600f5481565b600b60009054906101000a900473ffffffffffffffffffffffffffffffffffffffff1681565b600c60009054906101000a900473ffffffffffffffffffffffffffffffffffffffff1681565b601660009054906101000a900473ffffffffffffffffffffffffffffffffffffffff1681565b601460009054906101000a900473ffffffffffffffffffffffffffffffffffffffff1681565b600960009054906101000a900473ffffffffffffffffffffffffffffffffffffffff1681565b600a60009054906101000a900473ffffffffffffffffffffffffffffffffffffffff1681565b60116020528060005260406000206000915054906101000a900460ff1681565b601360009054906101000a900473ffffffffffffffffffffffffffffffffffffffff1681565b601260009054906101000a900473ffffffffffffffffffffffffffffffffffffffff1681565b6000819050919050565b610d9581610d82565b82525050565b6000602082019050610db06000830184610d8c565b92915050565b60008115159050919050565b610dcb81610db6565b82525050565b6000602082019050610de66000830184610dc2565b92915050565b600080fd5b600080fd5b610dff81610d82565b8114610e0a57600080fd5b50565b600081359050610e1c81610df6565b92915050565b600060208284031215610e3857610e37610dec565b5b6000610e4684828501610e0d565b91505092915050565b600073ffffffffffffffffffffffffffffffffffffffff82169050919050565b6000610e7a82610e4f565b9050919050565b610e8a81610e6f565b82525050565b6000602082019050610ea56000830184610e81565b92915050565b600081519050919050565b600082825260208201905092915050565b6000819050602082019050919050565b610ee081610e6f565b82525050565b6000610ef28383610ed7565b60208301905092915050565b6000602082019050919050565b6000610f1682610eab565b610f208185610eb6565b9350610f2b83610ec7565b8060005b83811015610f5c578151610f438882610ee6565b9750610f4e83610efe565b925050600181019050610f2f565b5085935050505092915050565b60006020820190508181036000830152610f838184610f0b565b905092915050565b6000819050919050565b610f9e81610f8b565b8114610fa957600080fd5b50565b600081359050610fbb81610f95565b92915050565b600060208284031215610fd757610fd6610dec565b5b6000610fe584828501610fac565b91505092915050565b610ff781610e6f565b811461100257600080fd5b50565b60008135905061101481610fee565b92915050565b6000602082840312156110305761102f610dec565b5b600061103e84828501611005565b91505092915050565b6000819050919050565b600061106c61106761106284610e4f565b611047565b610e4f565b9050919050565b600061107e82611051565b9050919050565b600061109082611073565b9050919050565b6110a081611085565b82525050565b60006020820190506110bb6000830184611097565b92915050565b600080fd5b60006101c082840312156110dd576110dc6110c1565b5b81905092915050565b6000602082840312156110fc576110fb610dec565b5b600082013567ffffffffffffffff81111561111a57611119610df1565b5b611126848285016110c6565b91505092915050565b600081519050919050565b600082825260208201905092915050565b60005b8381101561116957808201518184015260208101905061114e565b83811115611178576000848401525b50505050565b6000601f19601f8301169050919050565b600061119a8261112f565b6111a4818561113a565b93506111b481856020860161114b565b6111bd8161117e565b840191505092915050565b600060208201905081810360008301526111e2818461118f565b905092915050565b60006111f582611073565b9050919050565b611205816111ea565b82525050565b600060208201905061122060008301846111fc565b92915050565b600061123182611073565b9050919050565b61124181611226565b82525050565b600060208201905061125c6000830184611238565b92915050565b600061126d82611073565b9050919050565b61127d81611262565b82525050565b60006020820190506112986000830184611274565b92915050565b60006112a982611073565b9050919050565b6112b98161129e565b82525050565b60006020820190506112d460008301846112b0565b92915050565b600081519050919050565b600081905092915050565b60006112fb826112da565b61130581856112e5565b935061131581856020860161114b565b80840191505092915050565b600061132d82846112f0565b915081905092915050565b61134181610f8b565b82525050565b600060208201905061135c6000830184611338565b92915050565b61136b81610db6565b811461137657600080fd5b50565b60008135905061138881611362565b92915050565b600061139d6020840184611379565b905092915050565b6113ae81610db6565b82525050565b600080fd5b600080fd5b600080fd5b600080833560016020038436030381126113e0576113df6113be565b5b83810192508235915060208301925067ffffffffffffffff821115611408576114076113b4565b5b60018202360384131561141e5761141d6113b9565b5b509250929050565b600082825260208201905092915050565b82818337600083830152505050565b60006114528385611426565b935061145f838584611437565b6114688361117e565b840190509392505050565b60006114826020840184610e0d565b905092915050565b61149381610d82565b82525050565b600082905092915050565b6114b060408383611437565b5050565b60006114c36020840184611005565b905092915050565b6000819050919050565b6114de816114cb565b81146114e957600080fd5b50565b6000813590506114fb816114d5565b92915050565b600061151060208401846114ec565b905092915050565b611521816114cb565b82525050565b60008083356001602003843603038112611544576115436113be565b5b83810192508235915060208301925067ffffffffffffffff82111561156c5761156b6113b4565b5b600182023603841315611582576115816113b9565b5b509250929050565b600082825260208201905092915050565b60006115a7838561158a565b93506115b4838584611437565b6115bd8361117e565b840190509392505050565b60006101c083016115dc600084018461138e565b6115e960008601826113a5565b506115f760208401846113c3565b858303602087015261160a838284611446565b9250505061161b6040840184611473565b611628604086018261148a565b506116366060840184611473565b611643606086018261148a565b506116516080840184611499565b61165e60808601826114a4565b5061166c60c08401846113c3565b85830360c087015261167f838284611446565b9250505061169060e0840184611473565b61169d60e086018261148a565b506116ac610100840184611473565b6116ba61010086018261148a565b506116c9610120840184611473565b6116d761012086018261148a565b506116e6610140840184611473565b6116f461014086018261148a565b506117036101608401846114b4565b611711610160860182610ed7565b50611720610180840184611501565b61172e610180860182611518565b5061173d6101a0840184611527565b8583036101a087015261175183828461159b565b925050508091505092915050565b6000602082019050818103600083015261177981846115c8565b905092915050565b7f4e487b7100000000000000000000000000000000000000000000000000000000600052602260045260246000fd5b600060028204905060018216806117c857607f821691505b602082108114156117dc576117db611781565b5b5091905056fea2646970667358221220d8e24b3a8d8e21845f0840d37234a37c8cd95f8a05d5a33b905078a209bab10664736f6c63430008090033",
    "linkReferences": {},
    "deployedLinkReferences": {}
}