{
  "_format": "hh-sol-artifact-1",
  "contractName": "ArrowOptionChainProxy",
  "sourceName": "contracts/ArrowOptionChainProxy.sol",
  "abi": [
    {
      "inputs": [],
      "stateMutability": "nonpayable",
      "type": "constructor"
    },
    {
      "inputs": [
        {
          "internalType": "uint256",
          "name": "balance",
          "type": "uint256"
        },
        {
          "internalType": "uint256",
          "name": "totalLiabilities",
          "type": "uint256"
        }
      ],
      "name": "ChainNotSolvent",
      "type": "error"
    },
    {
      "inputs": [
        {
          "internalType": "bool",
          "name": "buyFlag",
          "type": "bool"
        },
        {
          "internalType": "bytes",
          "name": "arguments",
          "type": "bytes"
        },
        {
          "internalType": "uint256",
          "name": "insurancePrice",
          "type": "uint256"
        },
        {
          "internalType": "int256",
          "name": "delta",
          "type": "int256"
        },
        {
          "internalType": "address",
          "name": "senderAddress",
          "type": "address"
        },
        {
          "internalType": "bytes32",
          "name": "message",
          "type": "bytes32"
        },
        {
          "internalType": "bytes",
          "name": "signature",
          "type": "bytes"
        },
        {
          "internalType": "bytes",
          "name": "data",
          "type": "bytes"
        }
      ],
      "name": "DelegateDeliverOptionFailed",
      "type": "error"
    },
    {
      "inputs": [
        {
          "internalType": "uint256",
          "name": "poolFee",
          "type": "uint256"
        }
      ],
      "name": "DelegateIncrementPoolFeesFailed",
      "type": "error"
    },
    {
      "inputs": [
        {
          "internalType": "uint256",
          "name": "settlementPrice",
          "type": "uint256"
        },
        {
          "internalType": "uint256",
          "name": "txPrice",
          "type": "uint256"
        },
        {
          "internalType": "address[]",
          "name": "owners",
          "type": "address[]"
        },
        {
          "internalType": "bytes",
          "name": "data",
          "type": "bytes"
        }
      ],
      "name": "DelegateSettleAllFailed",
      "type": "error"
    },
    {
      "inputs": [],
      "name": "OptionChainAlreadySettled",
      "type": "error"
    },
    {
      "inputs": [],
      "name": "OptionContractDoesNotExist",
      "type": "error"
    },
    {
      "inputs": [
        {
          "internalType": "uint256",
          "name": "optionPrice",
          "type": "uint256"
        },
        {
          "internalType": "uint256",
          "name": "thresholdPrice",
          "type": "uint256"
        }
      ],
      "name": "OptionPriceHigherThanMaximum",
      "type": "error"
    },
    {
      "inputs": [
        {
          "internalType": "uint256",
          "name": "optionPrice",
          "type": "uint256"
        },
        {
          "internalType": "uint256",
          "name": "thresholdPrice",
          "type": "uint256"
        }
      ],
      "name": "OptionPriceLowerThanMinimum",
      "type": "error"
    },
    {
      "inputs": [
        {
          "internalType": "address",
          "name": "sender",
          "type": "address"
        }
      ],
      "name": "SenderNotRouter",
      "type": "error"
    },
    {
      "inputs": [
        {
          "internalType": "address",
          "name": "sender",
          "type": "address"
        }
      ],
      "name": "SenderNotRouterManager",
      "type": "error"
    },
    {
      "inputs": [],
      "name": "comptrollerAddress",
      "outputs": [
        {
          "internalType": "address",
          "name": "",
          "type": "address"
        }
      ],
      "stateMutability": "view",
      "type": "function"
    },
    {
      "inputs": [],
      "name": "currentInsurance",
      "outputs": [
        {
          "internalType": "uint256",
          "name": "",
          "type": "uint256"
        }
      ],
      "stateMutability": "view",
      "type": "function"
    },
    {
      "inputs": [
        {
          "components": [
            {
              "internalType": "bool",
              "name": "buyFlag",
              "type": "bool"
            },
            {
              "internalType": "string",
              "name": "ticker",
              "type": "string"
            },
            {
              "internalType": "uint256",
              "name": "expiration",
              "type": "uint256"
            },
            {
              "internalType": "uint256",
              "name": "readableExpiration",
              "type": "uint256"
            },
            {
              "internalType": "uint256",
              "name": "strike",
              "type": "uint256"
            },
            {
              "internalType": "string",
              "name": "decimalStrike",
              "type": "string"
            },
            {
              "internalType": "uint256",
              "name": "contractType",
              "type": "uint256"
            },
            {
              "internalType": "uint256",
              "name": "quantity",
              "type": "uint256"
            },
            {
              "internalType": "uint256",
              "name": "thresholdPrice",
              "type": "uint256"
            },
            {
              "internalType": "uint256",
              "name": "optionPrice",
              "type": "uint256"
            },
            {
              "internalType": "uint256",
              "name": "insurancePrice",
              "type": "uint256"
            },
            {
              "internalType": "int256",
              "name": "delta",
              "type": "int256"
            },
            {
              "internalType": "address",
              "name": "senderAddress",
              "type": "address"
            },
            {
              "internalType": "bytes32",
              "name": "message",
              "type": "bytes32"
            },
            {
              "internalType": "bytes",
              "name": "signature",
              "type": "bytes"
            }
          ],
          "internalType": "struct DeliverOptionParameters",
          "name": "params",
          "type": "tuple"
        }
      ],
      "name": "deliverOption",
      "outputs": [],
      "stateMutability": "nonpayable",
      "type": "function"
    },
    {
      "inputs": [],
      "name": "expiration",
      "outputs": [
        {
          "internalType": "uint256",
          "name": "",
          "type": "uint256"
        }
      ],
      "stateMutability": "view",
      "type": "function"
    },
    {
      "inputs": [],
      "name": "getOptionAddresses",
      "outputs": [
        {
          "internalType": "address[]",
          "name": "",
          "type": "address[]"
        }
      ],
      "stateMutability": "view",
      "type": "function"
    },
    {
      "inputs": [],
      "name": "hedgerDelegateAddress",
      "outputs": [
        {
          "internalType": "address",
          "name": "",
          "type": "address"
        }
      ],
      "stateMutability": "view",
      "type": "function"
    },
    {
      "inputs": [
        {
          "internalType": "uint256",
          "name": "_poolFee",
          "type": "uint256"
        }
      ],
      "name": "incrementPoolFees",
      "outputs": [],
      "stateMutability": "nonpayable",
      "type": "function"
    },
    {
      "inputs": [
        {
          "internalType": "uint256",
          "name": "_settlementPrice",
          "type": "uint256"
        }
      ],
      "name": "initSettlement",
      "outputs": [],
      "stateMutability": "nonpayable",
      "type": "function"
    },
    {
      "inputs": [],
      "name": "optionChainDelegateAddress",
      "outputs": [
        {
          "internalType": "address",
          "name": "",
          "type": "address"
        }
      ],
      "stateMutability": "view",
      "type": "function"
    },
    {
      "inputs": [],
      "name": "qiBorrowTokenAddress",
      "outputs": [
        {
          "internalType": "address",
          "name": "",
          "type": "address"
        }
      ],
      "stateMutability": "view",
      "type": "function"
    },
    {
      "inputs": [],
      "name": "qiCollateralTokenAddress",
      "outputs": [
        {
          "internalType": "address",
          "name": "",
          "type": "address"
        }
      ],
      "stateMutability": "view",
      "type": "function"
    },
    {
      "inputs": [],
      "name": "readableExpiration",
      "outputs": [
        {
          "internalType": "uint256",
          "name": "",
          "type": "uint256"
        }
      ],
      "stateMutability": "view",
      "type": "function"
    },
    {
      "inputs": [
        {
          "internalType": "address",
          "name": "_sender",
          "type": "address"
        }
      ],
      "name": "settle",
      "outputs": [],
      "stateMutability": "nonpayable",
      "type": "function"
    },
    {
      "inputs": [],
      "name": "settleInitialized",
      "outputs": [
        {
          "internalType": "bool",
          "name": "",
          "type": "bool"
        }
      ],
      "stateMutability": "view",
      "type": "function"
    },
    {
      "inputs": [
        {
          "internalType": "address",
          "name": "",
          "type": "address"
        }
      ],
      "name": "settled",
      "outputs": [
        {
          "internalType": "bool",
          "name": "",
          "type": "bool"
        }
      ],
      "stateMutability": "view",
      "type": "function"
    },
    {
      "inputs": [],
      "name": "swapRouterAddress",
      "outputs": [
        {
          "internalType": "address",
          "name": "",
          "type": "address"
        }
      ],
      "stateMutability": "view",
      "type": "function"
    },
    {
      "inputs": [],
      "name": "ticker",
      "outputs": [
        {
          "internalType": "string",
          "name": "",
          "type": "string"
        }
      ],
      "stateMutability": "view",
      "type": "function"
    },
    {
      "inputs": [],
      "name": "underlyingAssetAddress",
      "outputs": [
        {
          "internalType": "address",
          "name": "",
          "type": "address"
        }
      ],
      "stateMutability": "view",
      "type": "function"
    },
    {
      "inputs": [],
      "name": "updateEventsAddress",
      "outputs": [],
      "stateMutability": "nonpayable",
      "type": "function"
    },
    {
      "inputs": [],
      "name": "updateLocalAddresses",
      "outputs": [],
      "stateMutability": "nonpayable",
      "type": "function"
    },
    {
      "inputs": [],
      "name": "updateOptionFactoryAddress",
      "outputs": [],
      "stateMutability": "nonpayable",
      "type": "function"
    },
    {
      "inputs": [],
      "name": "updateRegistryAddress",
      "outputs": [],
      "stateMutability": "nonpayable",
      "type": "function"
    }
  ],
  "bytecode": "0x60806040526000600f60006101000a81548160ff0219169083151502179055506000601260146101000a81548160ff0219169083151502179055503480156200004757600080fd5b506000803373ffffffffffffffffffffffffffffffffffffffff1663890357306040518163ffffffff1660e01b815260040160006040518083038186803b1580156200009257600080fd5b505afa158015620000a7573d6000803e3d6000fd5b505050506040513d6000823e3d601f19601f82011682018060405250810190620000d2919062000cb9565b600760008060006001600060026000889e50899f508a9190505589919050558891905090805190602001906200010a92919062000b2b565b508791906101000a81548173ffffffffffffffffffffffffffffffffffffffff021916908373ffffffffffffffffffffffffffffffffffffffff16021790555050505050505081601160006101000a81548173ffffffffffffffffffffffffffffffffffffffff021916908373ffffffffffffffffffffffffffffffffffffffff1602179055506000915080600360006101000a81548173ffffffffffffffffffffffffffffffffffffffff021916908373ffffffffffffffffffffffffffffffffffffffff16021790555060009050600360009054906101000a900473ffffffffffffffffffffffffffffffffffffffff1673ffffffffffffffffffffffffffffffffffffffff16638345a5c96040518163ffffffff1660e01b815260040160206040518083038186803b1580156200024357600080fd5b505afa15801562000258573d6000803e3d6000fd5b505050506040513d601f19601f820116820180604052508101906200027e919062000c87565b600560006101000a81548173ffffffffffffffffffffffffffffffffffffffff021916908373ffffffffffffffffffffffffffffffffffffffff160217905550600360009054906101000a900473ffffffffffffffffffffffffffffffffffffffff1673ffffffffffffffffffffffffffffffffffffffff1663bff6fe126040518163ffffffff1660e01b815260040160206040518083038186803b1580156200032757600080fd5b505afa1580156200033c573d6000803e3d6000fd5b505050506040513d601f19601f8201168201806040525081019062000362919062000c87565b600660006101000a81548173ffffffffffffffffffffffffffffffffffffffff021916908373ffffffffffffffffffffffffffffffffffffffff160217905550600360009054906101000a900473ffffffffffffffffffffffffffffffffffffffff1673ffffffffffffffffffffffffffffffffffffffff16637bef4f546040518163ffffffff1660e01b815260040160206040518083038186803b1580156200040b57600080fd5b505afa15801562000420573d6000803e3d6000fd5b505050506040513d601f19601f8201168201806040525081019062000446919062000c87565b600f60016101000a81548173ffffffffffffffffffffffffffffffffffffffff021916908373ffffffffffffffffffffffffffffffffffffffff160217905550620004966200084760201b60201c565b600360009054906101000a900473ffffffffffffffffffffffffffffffffffffffff1673ffffffffffffffffffffffffffffffffffffffff1663f5c8ba936040518163ffffffff1660e01b815260040160206040518083038186803b158015620004ff57600080fd5b505afa15801562000514573d6000803e3d6000fd5b505050506040513d601f19601f820116820180604052508101906200053a919062000c87565b600860006101000a81548173ffffffffffffffffffffffffffffffffffffffff021916908373ffffffffffffffffffffffffffffffffffffffff160217905550600360009054906101000a900473ffffffffffffffffffffffffffffffffffffffff1673ffffffffffffffffffffffffffffffffffffffff16634ee9159a6040518163ffffffff1660e01b815260040160206040518083038186803b158015620005e357600080fd5b505afa158015620005f8573d6000803e3d6000fd5b505050506040513d601f19601f820116820180604052508101906200061e919062000c87565b600960006101000a81548173ffffffffffffffffffffffffffffffffffffffff021916908373ffffffffffffffffffffffffffffffffffffffff160217905550600460009054906101000a900473ffffffffffffffffffffffffffffffffffffffff1673ffffffffffffffffffffffffffffffffffffffff1663ee2b1d4b60006040518263ffffffff1660e01b8152600401620006bc919062000e27565b60206040518083038186803b158015620006d557600080fd5b505afa158015620006ea573d6000803e3d6000fd5b505050506040513d601f19601f8201168201806040525081019062000710919062000c87565b600b60006101000a81548173ffffffffffffffffffffffffffffffffffffffff021916908373ffffffffffffffffffffffffffffffffffffffff160217905550600460009054906101000a900473ffffffffffffffffffffffffffffffffffffffff1673ffffffffffffffffffffffffffffffffffffffff1663ee2b1d4b6040518163ffffffff1660e01b8152600401620007ab9062000e4b565b60206040518083038186803b158015620007c457600080fd5b505afa158015620007d9573d6000803e3d6000fd5b505050506040513d601f19601f82011682018060405250810190620007ff919062000c87565b600a60006101000a81548173ffffffffffffffffffffffffffffffffffffffff021916908373ffffffffffffffffffffffffffffffffffffffff1602179055505050620010b2565b620008576200087960201b60201c565b620008676200095f60201b60201c565b6200087762000a4560201b60201c565b565b600360009054906101000a900473ffffffffffffffffffffffffffffffffffffffff1673ffffffffffffffffffffffffffffffffffffffff16633f471f526040518163ffffffff1660e01b815260040160206040518083038186803b158015620008e257600080fd5b505afa158015620008f7573d6000803e3d6000fd5b505050506040513d601f19601f820116820180604052508101906200091d919062000c87565b601060006101000a81548173ffffffffffffffffffffffffffffffffffffffff021916908373ffffffffffffffffffffffffffffffffffffffff160217905550565b600360009054906101000a900473ffffffffffffffffffffffffffffffffffffffff1673ffffffffffffffffffffffffffffffffffffffff1663f21de1e86040518163ffffffff1660e01b815260040160206040518083038186803b158015620009c857600080fd5b505afa158015620009dd573d6000803e3d6000fd5b505050506040513d601f19601f8201168201806040525081019062000a03919062000c87565b600460006101000a81548173ffffffffffffffffffffffffffffffffffffffff021916908373ffffffffffffffffffffffffffffffffffffffff160217905550565b600360009054906101000a900473ffffffffffffffffffffffffffffffffffffffff1673ffffffffffffffffffffffffffffffffffffffff1663640f1fcf6040518163ffffffff1660e01b815260040160206040518083038186803b15801562000aae57600080fd5b505afa15801562000ac3573d6000803e3d6000fd5b505050506040513d601f19601f8201168201806040525081019062000ae9919062000c87565b601260006101000a81548173ffffffffffffffffffffffffffffffffffffffff021916908373ffffffffffffffffffffffffffffffffffffffff160217905550565b82805462000b399062000f66565b90600052602060002090601f01602090048101928262000b5d576000855562000ba9565b82601f1062000b7857805160ff191683800117855562000ba9565b8280016001018555821562000ba9579182015b8281111562000ba857825182559160200191906001019062000b8b565b5b50905062000bb8919062000bbc565b5090565b5b8082111562000bd757600081600090555060010162000bbd565b5090565b600062000bf262000bec8462000e96565b62000e6d565b90508281526020810184848401111562000c115762000c1062001035565b5b62000c1e84828562000f30565b509392505050565b60008151905062000c37816200107e565b92915050565b600082601f83011262000c555762000c5462001030565b5b815162000c6784826020860162000bdb565b91505092915050565b60008151905062000c818162001098565b92915050565b60006020828403121562000ca05762000c9f6200103f565b5b600062000cb08482850162000c26565b91505092915050565b60008060008060008060c0878903121562000cd95762000cd86200103f565b5b600062000ce989828a0162000c26565b965050602087015167ffffffffffffffff81111562000d0d5762000d0c6200103a565b5b62000d1b89828a0162000c3d565b955050604062000d2e89828a0162000c70565b945050606062000d4189828a0162000c70565b935050608062000d5489828a0162000c26565b92505060a062000d6789828a0162000c26565b9150509295509295509295565b6000815462000d838162000f66565b62000d8f818662000ee1565b9450600182166000811462000dad576001811462000dc05762000df7565b60ff198316865260208601935062000df7565b62000dcb8562000ecc565b60005b8381101562000def5781548189015260018201915060208101905062000dce565b808801955050505b50505092915050565b600062000e0f60048362000ee1565b915062000e1c8262001055565b602082019050919050565b6000602082019050818103600083015262000e43818462000d74565b905092915050565b6000602082019050818103600083015262000e668162000e00565b9050919050565b600062000e7962000e8c565b905062000e87828262000f9c565b919050565b6000604051905090565b600067ffffffffffffffff82111562000eb45762000eb362001001565b5b62000ebf8262001044565b9050602081019050919050565b60008190508160005260206000209050919050565b600082825260208201905092915050565b600062000eff8262000f06565b9050919050565b600073ffffffffffffffffffffffffffffffffffffffff82169050919050565b6000819050919050565b60005b8381101562000f5057808201518184015260208101905062000f33565b8381111562000f60576000848401525b50505050565b6000600282049050600182168062000f7f57607f821691505b6020821081141562000f965762000f9562000fd2565b5b50919050565b62000fa78262001044565b810181811067ffffffffffffffff8211171562000fc95762000fc862001001565b5b80604052505050565b7f4e487b7100000000000000000000000000000000000000000000000000000000600052602260045260246000fd5b7f4e487b7100000000000000000000000000000000000000000000000000000000600052604160045260246000fd5b600080fd5b600080fd5b600080fd5b600080fd5b6000601f19601f8301169050919050565b7f5553444300000000000000000000000000000000000000000000000000000000600082015250565b620010898162000ef2565b81146200109557600080fd5b50565b620010a38162000f26565b8114620010af57600080fd5b50565b6116d980620010c26000396000f3fe608060405234801561001057600080fd5b50600436106101415760003560e01c806368bde41f116100b857806390fcdb361161007c57806390fcdb36146102d05780639b5c6c60146102ee5780639b76eba21461030c578063be3eb72e1461032a578063c331cac414610346578063e660b0661461036457610141565b806368bde41f146102505780636a256b291461026e5780636edabed11461028a57806389d1a0fc146102945780638ba47bdd146102b257610141565b8063406f62931161010a578063406f6293146101b05780634665096d146101ce57806347d100c4146101ec57806354ea51c8146101f65780635d679f6814610214578063670798fc1461023257610141565b80625a1f87146101465780631cb13dc71461015057806324b039c11461016e5780632a66ff5f1461018a5780632ac53c7714610194575b600080fd5b61014e610394565b005b610158610476565b60405161016591906112c2565b60405180910390f35b61018860048036038101906101839190610e77565b610489565b005b6101926105b9565b005b6101ae60048036038101906101a99190610ec0565b61069b565b005b6101b86107cb565b6040516101c59190611285565b60405180910390f35b6101d66107f1565b6040516101e39190611321565b60405180910390f35b6101f46107f7565b005b6101fe610811565b60405161020b9190611321565b60405180910390f35b61021c610817565b60405161022991906112a0565b60405180910390f35b61023a6108a5565b6040516102479190611285565b60405180910390f35b6102586108cb565b6040516102659190611285565b60405180910390f35b61028860048036038101906102839190610e1d565b6108f1565b005b610292610a21565b005b61029c610b03565b6040516102a99190611285565b60405180910390f35b6102ba610b29565b6040516102c791906112dd565b60405180910390f35b6102d8610bb7565b6040516102e59190611285565b60405180910390f35b6102f6610bdd565b6040516103039190611321565b60405180910390f35b610314610be3565b6040516103219190611285565b60405180910390f35b610344600480360381019061033f9190610ec0565b610c09565b005b61034e610d39565b60405161035b9190611285565b60405180910390f35b61037e60048036038101906103799190610e1d565b610d5f565b60405161038b91906112c2565b60405180910390f35b600360009054906101000a900473ffffffffffffffffffffffffffffffffffffffff1673ffffffffffffffffffffffffffffffffffffffff16633f471f526040518163ffffffff1660e01b815260040160206040518083038186803b1580156103fc57600080fd5b505afa158015610410573d6000803e3d6000fd5b505050506040513d601f19601f820116820180604052508101906104349190610e4a565b601060006101000a81548173ffffffffffffffffffffffffffffffffffffffff021916908373ffffffffffffffffffffffffffffffffffffffff160217905550565b601260149054906101000a900460ff1681565b6000600560009054906101000a900473ffffffffffffffffffffffffffffffffffffffff1673ffffffffffffffffffffffffffffffffffffffff16826040516024016104d591906112ff565b6040516020818303038152906040527f24b039c1000000000000000000000000000000000000000000000000000000007bffffffffffffffffffffffffffffffffffffffffffffffffffffffff19166020820180517bffffffffffffffffffffffffffffffffffffffffffffffffffffffff838183161783525050505060405161055f919061126e565b600060405180830381855af49150503d806000811461059a576040519150601f19603f3d011682016040523d82523d6000602084013e61059f565b606091505b50509050806105b5576040513d806000833e8082fd5b5050565b600360009054906101000a900473ffffffffffffffffffffffffffffffffffffffff1673ffffffffffffffffffffffffffffffffffffffff1663f21de1e86040518163ffffffff1660e01b815260040160206040518083038186803b15801561062157600080fd5b505afa158015610635573d6000803e3d6000fd5b505050506040513d601f19601f820116820180604052508101906106599190610e4a565b600460006101000a81548173ffffffffffffffffffffffffffffffffffffffff021916908373ffffffffffffffffffffffffffffffffffffffff160217905550565b6000600560009054906101000a900473ffffffffffffffffffffffffffffffffffffffff1673ffffffffffffffffffffffffffffffffffffffff16826040516024016106e79190611321565b6040516020818303038152906040527f2ac53c77000000000000000000000000000000000000000000000000000000007bffffffffffffffffffffffffffffffffffffffffffffffffffffffff19166020820180517bffffffffffffffffffffffffffffffffffffffffffffffffffffffff8381831617835250505050604051610771919061126e565b600060405180830381855af49150503d80600081146107ac576040519150601f19603f3d011682016040523d82523d6000602084013e6107b1565b606091505b50509050806107c7576040513d806000833e8082fd5b5050565b600660009054906101000a900473ffffffffffffffffffffffffffffffffffffffff1681565b60015481565b6107ff610394565b6108076105b9565b61080f610a21565b565b60025481565b6060600e80548060200260200160405190810160405280929190818152602001828054801561089b57602002820191906000526020600020905b8160009054906101000a900473ffffffffffffffffffffffffffffffffffffffff1673ffffffffffffffffffffffffffffffffffffffff1681526020019060010190808311610851575b5050505050905090565b600a60009054906101000a900473ffffffffffffffffffffffffffffffffffffffff1681565b600960009054906101000a900473ffffffffffffffffffffffffffffffffffffffff1681565b6000600560009054906101000a900473ffffffffffffffffffffffffffffffffffffffff1673ffffffffffffffffffffffffffffffffffffffff168260405160240161093d9190611285565b6040516020818303038152906040527f6a256b29000000000000000000000000000000000000000000000000000000007bffffffffffffffffffffffffffffffffffffffffffffffffffffffff19166020820180517bffffffffffffffffffffffffffffffffffffffffffffffffffffffff83818316178352505050506040516109c7919061126e565b600060405180830381855af49150503d8060008114610a02576040519150601f19603f3d011682016040523d82523d6000602084013e610a07565b606091505b5050905080610a1d576040513d806000833e8082fd5b5050565b600360009054906101000a900473ffffffffffffffffffffffffffffffffffffffff1673ffffffffffffffffffffffffffffffffffffffff1663640f1fcf6040518163ffffffff1660e01b815260040160206040518083038186803b158015610a8957600080fd5b505afa158015610a9d573d6000803e3d6000fd5b505050506040513d601f19601f82011682018060405250810190610ac19190610e4a565b601260006101000a81548173ffffffffffffffffffffffffffffffffffffffff021916908373ffffffffffffffffffffffffffffffffffffffff160217905550565b600760009054906101000a900473ffffffffffffffffffffffffffffffffffffffff1681565b60008054610b36906115a0565b80601f0160208091040260200160405190810160405280929190818152602001828054610b62906115a0565b8015610baf5780601f10610b8457610100808354040283529160200191610baf565b820191906000526020600020905b815481529060010190602001808311610b9257829003601f168201915b505050505081565b600860009054906101000a900473ffffffffffffffffffffffffffffffffffffffff1681565b600c5481565b600560009054906101000a900473ffffffffffffffffffffffffffffffffffffffff1681565b6000600560009054906101000a900473ffffffffffffffffffffffffffffffffffffffff1673ffffffffffffffffffffffffffffffffffffffff1682604051602401610c559190611321565b6040516020818303038152906040527fbe3eb72e000000000000000000000000000000000000000000000000000000007bffffffffffffffffffffffffffffffffffffffffffffffffffffffff19166020820180517bffffffffffffffffffffffffffffffffffffffffffffffffffffffff8381831617835250505050604051610cdf919061126e565b600060405180830381855af49150503d8060008114610d1a576040519150601f19603f3d011682016040523d82523d6000602084013e610d1f565b606091505b5050905080610d35576040513d806000833e8082fd5b5050565b600b60009054906101000a900473ffffffffffffffffffffffffffffffffffffffff1681565b60136020528060005260406000206000915054906101000a900460ff1681565b600081359050610d8e81611630565b92915050565b600081519050610da381611630565b92915050565b600081359050610db881611647565b92915050565b600081359050610dcd8161165e565b92915050565b600081359050610de281611675565b92915050565b60006101e08284031215610dff57610dfe611606565b5b81905092915050565b600081359050610e178161168c565b92915050565b600060208284031215610e3357610e3261161a565b5b6000610e4184828501610d7f565b91505092915050565b600060208284031215610e6057610e5f61161a565b5b6000610e6e84828501610d94565b91505092915050565b600060208284031215610e8d57610e8c61161a565b5b600082013567ffffffffffffffff811115610eab57610eaa611610565b5b610eb784828501610de8565b91505092915050565b600060208284031215610ed657610ed561161a565b5b6000610ee484828501610e08565b91505092915050565b6000610ef98383610f05565b60208301905092915050565b610f0e81611502565b82525050565b610f1d81611502565b82525050565b6000610f2e8261134c565b610f38818561137a565b9350610f438361133c565b8060005b83811015610f74578151610f5b8882610eed565b9750610f668361136d565b925050600181019050610f47565b5085935050505092915050565b610f8a81611514565b82525050565b610f9981611514565b82525050565b610fa881611520565b82525050565b6000610fba838561138b565b9350610fc783858461155e565b610fd08361161f565b840190509392505050565b6000610fe682611357565b610ff0818561139c565b935061100081856020860161156d565b80840191505092915050565b6110158161152a565b82525050565b600061102783856113a7565b935061103483858461155e565b61103d8361161f565b840190509392505050565b600061105382611362565b61105d81856113b8565b935061106d81856020860161156d565b6110768161161f565b840191505092915050565b60006101e0830161109560008401846113e0565b6110a26000860182610f81565b506110b06020840184611488565b85830360208701526110c383828461101b565b925050506110d460408401846114eb565b6110e16040860182611250565b506110ef60608401846114eb565b6110fc6060860182611250565b5061110a60808401846114eb565b6111176080860182611250565b5061112560a0840184611488565b85830360a087015261113883828461101b565b9250505061114960c08401846114eb565b61115660c0860182611250565b5061116460e08401846114eb565b61117160e0860182611250565b506111806101008401846114eb565b61118e610100860182611250565b5061119d6101208401846114eb565b6111ab610120860182611250565b506111ba6101408401846114eb565b6111c8610140860182611250565b506111d7610160840184611471565b6111e561016086018261100c565b506111f46101808401846113c9565b611202610180860182610f05565b506112116101a08401846113f7565b61121f6101a0860182610f9f565b5061122e6101c084018461140e565b8583036101c0870152611242838284610fae565b925050508091505092915050565b61125981611554565b82525050565b61126881611554565b82525050565b600061127a8284610fdb565b915081905092915050565b600060208201905061129a6000830184610f14565b92915050565b600060208201905081810360008301526112ba8184610f23565b905092915050565b60006020820190506112d76000830184610f90565b92915050565b600060208201905081810360008301526112f78184611048565b905092915050565b600060208201905081810360008301526113198184611081565b905092915050565b6000602082019050611336600083018461125f565b92915050565b6000819050602082019050919050565b600081519050919050565b600081519050919050565b600081519050919050565b6000602082019050919050565b600082825260208201905092915050565b600082825260208201905092915050565b600081905092915050565b600082825260208201905092915050565b600082825260208201905092915050565b60006113d86020840184610d7f565b905092915050565b60006113ef6020840184610da9565b905092915050565b60006114066020840184610dbe565b905092915050565b6000808335600160200384360303811261142b5761142a611615565b5b83810192508235915060208301925067ffffffffffffffff82111561145357611452611601565b5b6001820236038413156114695761146861160b565b5b509250929050565b60006114806020840184610dd3565b905092915050565b600080833560016020038436030381126114a5576114a4611615565b5b83810192508235915060208301925067ffffffffffffffff8211156114cd576114cc611601565b5b6001820236038413156114e3576114e261160b565b5b509250929050565b60006114fa6020840184610e08565b905092915050565b600061150d82611534565b9050919050565b60008115159050919050565b6000819050919050565b6000819050919050565b600073ffffffffffffffffffffffffffffffffffffffff82169050919050565b6000819050919050565b82818337600083830152505050565b60005b8381101561158b578082015181840152602081019050611570565b8381111561159a576000848401525b50505050565b600060028204905060018216806115b857607f821691505b602082108114156115cc576115cb6115d2565b5b50919050565b7f4e487b7100000000000000000000000000000000000000000000000000000000600052602260045260246000fd5b600080fd5b600080fd5b600080fd5b600080fd5b600080fd5b600080fd5b6000601f19601f8301169050919050565b61163981611502565b811461164457600080fd5b50565b61165081611514565b811461165b57600080fd5b50565b61166781611520565b811461167257600080fd5b50565b61167e8161152a565b811461168957600080fd5b50565b61169581611554565b81146116a057600080fd5b5056fea2646970667358221220c9f5d5ef737e51a6a16888aa97dc62b9bdd99827457ab15a2f7a574a1304b20364736f6c63430008070033",
  "linkReferences": {},
  "deployedLinkReferences": {}
}